:100000000C94E1020C9409030C9409030C94180855
:100010000C9418080C9418080C9409030C94090308
:100020000C9409030C9409030C9409030C94090320
:100030000C9409030C9409030C9409030C94090310
:100040000C94260C0C9409030C94E40C0C94BE0C38
:100050000C9409030C9409030C9409030C940903F0
:100060000C9409030C9409030000000024002700ED
:100070002A0000000008000201000003040700003D
:1000800000000000000000000000003E5B4F5B3EEF
:100090003E6B4F6B3E1C3E7C3E1C183C7E3C181C4D
:1000A000577D571C1C5E7F5E1C00183C1800FFE744
:1000B000C3E7FF0018241800FFE7DBE7FF30483AEA
:1000C000060E2629792926407F050507407F05254C
:1000D0003F5A3CE73C5A7F3E1C1C08081C1C3E7FD4
:1000E00014227F22145F5F005F5F06097F017F009B
:1000F0006689956A606060606094A2FFA2940804BB
:100100007E040810207E201008082A1C08081C2ADB
:1001100008081E101010100C1E0C1E0C30383E3833
:1001200030060E3E0E06000000000000005F0000DA
:100130000007000700147F147F14242A7F2A12234B
:100140001308646236495620500008070300001C5B
:100150002241000041221C002A1C7F1C2A08083E64
:100160000808008070300008080808080000606077
:100170000020100804023E5149453E00427F4000E5
:1001800072494949462141494D331814127F1027BD
:10019000454545393C4A494931412111090736490C
:1001A000494936464949291E0000140000004034E0
:1001B00000000008142241141414141400412214E5
:1001C0000802015909063E415D594E7C1211127C0C
:1001D0007F494949363E414141227F4141413E7F6D
:1001E000494949417F090909013E414151737F084D
:1001F00008087F00417F41002040413F017F0814F3
:1002000022417F404040407F021C027F7F04081053
:100210007F3E4141413E7F090909063E4151215E31
:100220007F09192946264949493203017F01033FC5
:100230004040403F1F2040201F3F4038403F631454
:1002400008146303047804036159494D43007F4156
:1002500041410204081020004141417F0402010293
:1002600004404040404000030708002054547840B8
:100270007F284444383844444428384444287F384C
:100280005454541800087E090218A4A49C787F08CE
:1002900004047800447D40002040403D007F102849
:1002A000440000417F40007C047804787C0804040A
:1002B000783844444438FC1824241818242418FCA2
:1002C0007C08040408485454542404043F44243C47
:1002D0004040207C1C2040201C3C4030403C4428B6
:1002E0001028444C9090907C4464544C4400083650
:1002F00041000000770000004136080002010204BE
:10030000023C2623263C1EA1A161123A4040207ADD
:100310003854545559215555794121545478412127
:100320005554784020545579400C1E52721239555C
:100330005555593954545459395554545800004559
:100340007C410002457D420001457C40F029242982
:10035000F0F0282528F07C545545002054547C5456
:100360007C0A097F49324949493232484848323289
:100370004A4848303A4141217A3A42402078009D2B
:10038000A0A07D39444444393D4040403D3C24FFD9
:100390002424487E4943662B2FFC2F2BFF0929F686
:1003A00020C0887E090320545479410000447D41D7
:1003B0003048484A32384040227A007A0A0A727D30
:1003C0000D19317D2629292F28262929292630484B
:1003D0004D4020380808080808080808382F10C8B9
:1003E000ACBA2F102834FA00007B000008142A143D
:1003F0002222142A1408AA005500AAAA55AA55AA0E
:10040000000000FF00101010FF00141414FF001073
:1004100010FF00FF1010F010F0141414FC0014145E
:10042000F700FF0000FF00FF1414F404FC1414177D
:10043000101F10101F101F1414141F00101010F0A4
:10044000000000001F101010101F10101010F010EE
:10045000000000FF101010101010101010FF1000FE
:100460000000FF140000FF00FF00001F1017000035
:10047000FC04F414141710171414F404F40000FF0F
:1004800000F714141414141414F700F714141417A8
:100490001410101F101F141414F4141010F010F086
:1004A00000001F101F0000001F14000000FC1400BB
:1004B00000F010F01010FF10FF141414FF141010AF
:1004C000101F00000000F010FFFFFFFFFFF0F0F032
:1004D000F0F0FFFFFF0000000000FFFF0F0F0F0F05
:1004E0000F38444438447C2A2A3E147E0202060611
:1004F000027E027E0263554941633844443C044015
:100500007E201E2006027E020299A5E7A5991C2ADC
:10051000492A1C4C7201724C304A4D4D303048789B
:100520004830BC625A463D3E494949007E010101BE
:100530007E2A2A2A2A2A44445F444440514A44409D
:1005400040444A51400000FF0103E080FF000008E2
:10055000086B6B083612362436060F090F060000AA
:1005600018180000001010003040FF0101001F01AA
:10057000011E00191D1712003C3C3C3C000000000D
:1005800000000000002300260029000000000025D4
:100590000028002B000404040404040404020202E2
:1005A00002020203030303030301020408102040B4
:1005B0008001020408102001020408102000EF143A
:1005C0001F1011241FBECFEFD8E0DEBFCDBF24E047
:1005D000A6EAB1E001C01D92A839B207E1F711E027
:1005E000A0E0B1E0E4EFF1E302C005900D92A63A7D
:1005F000B107D9F712E0C0EED2E004C02197FE01A6
:100600000E94EB16CF3DD107C9F70E943B100C9416
:10061000ED180C940000FC01538D448D252F30E023
:10062000842F90E0821B930B541710F0CF960895FF
:1006300001970895FC01918D828D981761F0828D4C
:10064000DF01A80FB11D5D968C91928D9F5F9F7306
:10065000928F90E008958FEF9FEF0895FC01918DA8
:10066000828D981731F0828DE80FF11D858D90E015
:1006700008958FEF9FEF0895FC01918D228D892FB2
:1006800090E0805C9F4F821B91098F73992708959A
:1006900080E090E0892B29F00E94CF0B81110C940F
:1006A000000008952091AA023091AB022817390763
:1006B00071F49091A8028091A902981741F0E091FD
:1006C000A802F0E0EE54FE4F808190E008958FEF95
:1006D0009FEF089508951F93CF93DF93DC015C96FD
:1006E0008D919C915D97009739F421E030E013964D
:1006F0003C932E9312973BC05196ED91FC915297EB
:1007000050962C915097322F30951FB75E964C9192
:100710005E97742F727041FD6095F8944081772345
:1007200011F0422B01C043234083EC012197F1F7E4
:1007300048E0508160FF02C0522B01C05323508318
:10074000EC012197F1F76695415099F78081772365
:1007500019F08323808302C0282B20831FBF5C965F
:100760008D919C915D970197F1F781E090E0DF9189
:10077000CF911F9108952091AA023091AB022817C2
:10078000390771F48091A9022091A80290E0805C61
:100790009F4F821B910960E470E00E949A160895B1
:1007A00080E090E008952091AA023091AB022817D2
:1007B0003907B9F49091A8028091A902981789F09D
:1007C000E091A802F0E0EE54FE4F80812091A80253
:1007D00030E02F5F3F4F2F7333272093A80290E024
:1007E00008958FEF9FEF0895089580E090E00895B9
:1007F000FC01DB014D915D916D917C9113974083DC
:1008000051836283738314968C9114978483159615
:100810008C911597858316968C91169786831796DB
:100820008C91878308950F931F93CF93DF9320912B
:10083000A7012F5F322F37703093A70120FF02C02E
:1008400020E801C020E031FD2064347009F020620E
:10085000205FFC01EC01239600E011E06485662333
:1008600031F070E0C8010E949A166F5F01C060E02D
:100870006187322F369F030E30E0311D1124311174
:1008800002C0168202C031503683662311F06150D7
:1008900061873196CE17DF0709F7DF91CF911F915E
:1008A0000F91089580E991E00895569A08950F9365
:1008B0001F93CF93DF93CDB7DEB762970FB6F8944F
:1008C000DEBF0FBECDBF8C01F901DC011C968C91FF
:1008D0007A8369835C834B835E834D8390819D879C
:1008E00091819E8792819F87813029F4CE01019664
:1008F0000E94130406C01C861B861A861986188659
:100900001F8283E0888B1A8A198AD801ED91FC91A5
:100910000484F585E02DBE016F5F7F4FC801099506
:1009200062960FB6F894DEBF0FBECDBFDF91CF91B8
:100930001F910F9108950F931F93CF93DF93CDB71E
:10094000DEB762970FB6F894DEBF0FBECDBF8C0145
:10095000F901DC011C968C917A8369835C834B835B
:100960005E834D8390819D8791819E8792819F8731
:10097000813029F4CE0101960E94130406C01C8622
:100980001B861A86198618861F82188A1A8A198A5F
:10099000D801ED91FC910484F585E02DBE016F5FD7
:1009A0007F4FC801099562960FB6F894DEBF0FBE5F
:1009B000CDBFDF91CF911F910F91089580E090E01E
:1009C0000895FC01858596850895CF93DF9300D027
:1009D00000D000D0CDB7DEB7AB011C821D821E82D5
:1009E000DC01ED91FC910190F081E02D19821A82D9
:1009F0001B829E012F5F3F4FBE016C5F7F4F0995A9
:100A000026960FB6F894DEBF0FBECDBFDF91CF9113
:100A100008954F925F926F927F928F92AF92BF92A2
:100A2000CF92DF92EF920F931F93CF93DF933C010E
:100A3000EB010E94EE0FF30127853089621B730BD7
:100A40006A307105B0F3F894E881F9817BB1706484
:100A50006BB16F7B6BB9CA848F812C2D281B822FC1
:100A60002F83BF844A805B801D850C85DE841F5FD9
:100A70000F5FD3949E813885A984EB844181D20194
:100A800020E0C32F522F322F318144278894311117
:100A9000380F08F43FEF8195889410FD430F479578
:100AA000889411FD430F4795889412FD430F479595
:100AB000889413FD430F4795889414FD430F479581
:100AC000889415FD430F4795889416FD430F47956D
:100AD000889417FD430F47958894232F1111242FD5
:100AE0008C0D422F002C7BB900C047FF6BB93081C1
:100AF0002227889400C000C0002C6BB93111390F37
:100B000000C0002C7BB900C046FF6BB908F43FEF72
:100B10009195889400C000C0002C6BB900FD230F94
:100B200000C0002C7BB900C045FF6BB927958894A5
:100B300001FD230F00C000C0002C6BB927958894DD
:100B400000C0002C7BB900C044FF6BB902FD230F2D
:100B50002795889400C000C0002C6BB903FD230FBB
:100B600000C0002C7BB900C043FF6BB92795889467
:100B700004FD230F00C000C0002C6BB9279588949A
:100B800000C0002C7BB900C042FF6BB905FD230FEC
:100B90002795889400C000C0002C6BB906FD230F78
:100BA00000C0002C7BB900C041FF6BB92795889429
:100BB00007FD230F00C000C0002C6BB92795889457
:100BC00000C0002C7BB900C040FF6BB9432F01115E
:100BD000422F9A0D00C000C0002C6BB900C000C0AD
:100BE000002C7BB900C047FF6BB932812227889463
:100BF00000C000C0002C6BB931113C0F00C0002CAC
:100C00007BB900C046FF6BB908F43FEFEB0DF11D57
:100C100000C000C0002C6BB9D0FC230F00C0002C1A
:100C20007BB900C045FF6BB927958894D1FC230F91
:100C300000C000C0002C6BB92795889400C0002C20
:100C40007BB900C044FF6BB9D2FC230F2795889471
:100C500000C000C0002C6BB9D3FC230F00C0002CD7
:100C60007BB900C043FF6BB927958894D4FC230F50
:100C700000C000C0002C6BB92795889400C0002CE0
:100C80007BB900C042FF6BB9D5FC230F2795889430
:100C900000C000C0002C6BB9D6FC230F00C0002C94
:100CA0007BB900C041FF6BB927958894D7FC230F0F
:100CB00000C000C0002C6BB92795889400C0002CA0
:100CC0007BB900C040FF6BB9432FD110422FC195B3
:100CD00000C000C0002C6BB9CE0D00C000C07BB9B5
:100CE00000C047FF6BB931812227889400C000C043
:100CF000002C6BB93111380F00C0002C7BB900C03B
:100D000046FF6BB908F43FEF8195889400C000C09E
:100D1000002C6BB910FD230F00C0002C7BB900C064
:100D200045FF6BB92795889411FD230F00C000C0C3
:100D3000002C6BB92795889400C0002C7BB900C0AB
:100D400044FF6BB912FD230F2795889400C000C0A3
:100D5000002C6BB913FD230F00C0002C7BB900C021
:100D600043FF6BB92795889414FD230F00C000C082
:100D7000002C6BB92795889400C0002C7BB900C06B
:100D800042FF6BB915FD230F2795889400C000C062
:100D9000002C6BB916FD230F00C0002C7BB900C0DE
:100DA00041FF6BB92795889417FD230F00C000C041
:100DB000002C6BB92795889400C0002C7BB900C02B
:100DC00040FF6BB9432F1111422F8C0D00C000C0A2
:100DD000002C6BB9119709F086CE20EE31E0D201DC
:100DE0000E94D016DC01CB01F4E0B695A79597954B
:100DF0008795FA95D1F720E030E0B901EAE94E9EF7
:100E0000040C611D5E9E600D711D1124650D711D28
:100E1000860F971FA11DB11D893E43E09407A105D0
:100E2000B10508F434C0885E9340A109B10942E0DD
:100E3000B695A795979587954A95D1F747E0849FF2
:100E4000080E211D949F200D311D1124290F311DE5
:100E50006091A60170E0860F971F820F931F40914B
:100E6000E9025091EA026091EB027091EC02292FA5
:100E70003327420F531F611D711D4093E9025093A8
:100E8000EA026093EB027093EC028093A6017894DF
:100E90000E94EE0FF301708B6787DF91CF911F9156
:100EA0000F91EF90DF90CF90BF90AF908F907F9099
:100EB0006F905F904F900895CF93DF9300D000D054
:100EC00000D0CDB7DEB76CE471E0CE0101960E9490
:100ED000700CCE0101960E94470D89819A810E9473
:100EE000891726960FB6F894DEBF0FBECDBFDF91EF
:100EF000CF910895CF93DF9300D000D000D0CDB72D
:100F0000DEB766E571E0CE0101960E94700CCE015D
:100F100001960E94470D89819A810E948917269621
:100F20000FB6F894DEBF0FBECDBFDF91CF9108950D
:100F3000CF93DF9300D000D000D0CDB7DEB760E60E
:100F400071E0CE0101960E94700CCE0101960E94C4
:100F5000470D89819A810E94891726960FB6F894C9
:100F6000DEBF0FBECDBFDF91CF910895CF93DF934A
:100F700000D000D000D0CDB7DEB76AE671E0CE0178
:100F800001960E94700CCE0101960E94470D898146
:100F90009A810E94891726960FB6F894DEBF0FBE7D
:100FA000CDBFDF91CF910895FC01848DDF01A80FA3
:100FB000B11DA35ABF4F2C91848D90E001968F7381
:100FC0009927848FA689B7892C93A089B1898C91A0
:100FD000837080648C93938D848D981306C00288EF
:100FE000F389E02D80818F7D80830895CF93DF93F7
:100FF000EC01888D8823C9F0EA89FB89808185FD11
:1010000005C0A889B9898C9186FD0FC00FB607FC71
:10101000F5CF808185FFF2CFA889B9898C9185FFB2
:10102000EDCFCE010E94D407E7CFDF91CF91089595
:101030001F920F920FB60F9211242F933F934F934D
:101040005F936F937F938F939F93AF93BF93EF9330
:10105000FF93E091AA02F091AB02309709F451C0DE
:10106000968DA685B785858591FF04C09C918923BF
:1010700029F447C09C91892309F043C0A389B4890E
:101080009C918589809589238C938689978901977E
:10109000F1F7608D718DA685B785558538E020E024
:1010A000CB010197F1F7822F90E095958795282F36
:1010B0004C91452309F02068315091F7868D81FDD0
:1010C00020958091A90290E001968F739927309125
:1010D000A802381749F0A091A902B0E0AE54BE4F63
:1010E0002C938093A90203C0868D8160868F828DA8
:1010F000938D0197F1F7A389B4899C918589892BF8
:101100008C93FF91EF91BF91AF919F918F917F91C0
:101110006F915F914F913F912F910F900FBE0F9064
:101120001F901895EF92FF920F931F93CF93DF9329
:10113000CDB7DEB728970FB6F894DEBF0FBECDBF90
:101140007C018B01BC01CE0101960E94F803F801DD
:1011500080819181A281B381F70180839183A283F1
:10116000B383F8018481F7018483F8018581F70155
:101170008583F8018681F7018683F8018781F7016D
:10118000878389819A81AB81BC81F80180839183B7
:10119000A283B3838D8184838E8185838F818683AF
:1011A0008885878328960FB6F894DEBF0FBECDBF23
:1011B000DF91CF911F910F91FF90EF9008953F9293
:1011C0004F925F926F927F928F929F92AF92BF9257
:1011D000CF92DF92EF92FF920F931F93CF93DF9303
:1011E000CDB7DEB768970FB6F894DEBF0FBECDBFA0
:1011F0006091D0037091D103CE0141960E94F80313
:10120000C988DA88EB88FC880E9413106C157D056C
:101210008E059F0508F4D8C1ED89F0E0CF01880F55
:10122000991FE80FF91FEC50FE4F8E8980838F893C
:101230008183888D8283F090A4038091A70390918D
:10124000A803A091A903B091AA03892B8A2B8B2B09
:10125000E9F00E94EE0F0091AE011091AF012091D4
:10126000B0013091B101DC01CB01801B910BA20BCD
:10127000B30B0091A7031091A8032091A90330910B
:10128000AA0380179107A207B307B8F20E94EE0FD6
:101290006093AE017093AF018093B0019093B10160
:1012A000E091AF03F091B003309759F04091AB0358
:1012B0005091AC036091AD037091AE038F2D0995F1
:1012C000F82E0091F2011091F3014F2C512C612C5A
:1012D000712C0115110509F45FC0D8011C96EC9022
:1012E0001C978091A5039091A6038436910510F474
:1012F0001C961C92D801ED91FC91A280B3801982BA
:101300001A821B82F11014C0F8014585568562814E
:1013100073819E012F5F3F4FC801F5010995D801E8
:101320001C96EC921C9714960D911C911597D1CF99
:10133000F8013696CE0101966C01480199E0890EBC
:10134000911C2191222309F132803320F1F0822F68
:1013500090E0A0E0B0E09C01AD012F5F3F4F4F4F08
:101360005F4FC301B2010E948A169B01AC01832D1D
:1013700090E0A0E0B0E0BC01CD016F5F7F4F8F4FE8
:101380009F4F0E948A16D6018C93BFEFCB1ADB0ABF
:101390008E169F06B1F6B8CF8091AC019091AD0149
:1013A0008C010F5F1F4F1093AD010093AC01499763
:1013B0009CF10E9413104B015C0188EE93E0089FA2
:1013C000B001099F700D189F700D1124072E000C9D
:1013D000880B990BC090A801D090A901E090AA01B8
:1013E000F090AB01A50194012C193D094E095F094C
:1013F0000E94AE163093A6032093A5031092AD0170
:101400001092AC010E9413106093A8017093A9017F
:101410008093AA019093AB018091D4039091D5035E
:10142000181619064CF08FEF9FEFDC0189839A8321
:10143000AB83BC838D83C0C06091D0037091D10316
:10144000019749F41092D5031092D403CE0101966E
:101450000E94F803B1C0CE0109960E94F803A09142
:10146000D003B091D1038091D4039091D503FC01B6
:10147000E150F04E53E0EE0FFF1F5A95E1F7EA0FEF
:10148000FB1F40815181628173814D935D936D9308
:101490007C931397248114962C9314972581159689
:1014A0002C931597268116962C93169727811796BD
:1014B0002C9301979093D5038093D40320E030E0E0
:1014C000C901880F991F8C010F5F1F4F0296409131
:1014D000D4035091D5030417150734F5E091D003D8
:1014E000F091D103D80173E0AA0FBB1F7A95E1F701
:1014F000AE0FBF1FB901660F771F660F771F660F0C
:10150000771FE60FF71F8D909D90AD90BC90C08027
:10151000D180E280F3808C149D04AE04BF0424F4D7
:10152000841795073CF504C084179507F4F58901E5
:10153000E091D003F091D103DC0143E0AA0FBB1F7F
:101540004A95E1F7AE0FBF1FA80163E0440F551F96
:101550006A95E1F7E40FF51FCD90DD90ED90FC90DA
:101560004081518162817381C416D506E606F70673
:101570000CF48C0120173107C1F04091D003509139
:10158000D103B80183E0660F771F8A95E1F7640FF6
:10159000751FC90123E0880F991F2A95E1F7840F71
:1015A000951F0E94920898018BCFBE01675F7F4F05
:1015B000CE0101960E94F8038091D4039091D50347
:1015C000892B11F00E94DF0868960FB6F894DEBFF1
:1015D0000FBECDBFDF91CF911F910F91FF90EF9084
:1015E000DF90CF90BF90AF909F908F907F906F9043
:1015F0005F904F903F9008954F925F926F927F92CD
:101600009F92AF92BF92CF92DF92EF92FF920F9391
:101610001F93CF93DF93CDB7DEB760970FB6F894E3
:10162000DEBF0FBECDBF5C016B01942E122F0E9456
:1016300013102701FF0C66087708DC01CB01840D2D
:10164000951DA61DB71D89879A87AB87BC8722E0A9
:10165000A216B10481F024F4AA94AB28D9F017C0E3
:1016600023E0A216B10451F034E0A316B10479F4DA
:101670008BE390E007C08DE190E004C03EE1C30E33
:10168000D11C08C09C012C193D09690103C0CC2460
:10169000CA94DC2CCD869E861F87088BBE01675FAF
:1016A0007F4FCE0101960E94F803CE0101960E9461
:1016B0005A0D60960FB6F894DEBF0FBECDBFDF9116
:1016C000CF911F910F91FF90EF90DF90CF90BF903F
:1016D000AF909F907F906F905F904F900895EF92A2
:1016E000FF920F931F93CF93DF93EB018A01790150
:1016F000882379F08881811109C00E941310F801B4
:101700006083718382839383F701099581E08883E5
:1017100013C00E941310F8010081118122813381CE
:10172000DC01CB01801B910BA20BB30B853691051D
:10173000A105B10508F01882DF91CF911F910F919B
:10174000FF90EF900895CF92DF92EF92FF920F9368
:101750001F93CF93DF936C017A018B01C0E0D0E03F
:10176000CE15DF0581F0D8016D918D01D601ED9187
:10177000FC910190F081E02DC6010995892B11F0B3
:101780002196EECF7E01C701DF91CF911F910F917E
:10179000FF90EF90DF90CF9008950E94D81881EFCE
:1017A00092E00E943C0321E0892B09F420E0822F83
:1017B0000895EF92FF920F931F93CF93DF93EC0165
:1017C00081E0888F9B8D8C8D981305C0E889F989FD
:1017D000808185FD26C0F62E0B8D10E00F5F1F4F18
:1017E0000F731127E02E8C8DE8120CC00FB607FC8A
:1017F000FACFE889F989808185FFF5CFCE010E9473
:10180000D407F1CF8B8DFE01E80FF11DE35AFF4F96
:10181000F0829FB7F8940B8FEA89FB898081806200
:101820000AC09FB7F894EE89FF896083E889F98937
:1018300080818370806480839FBF81E090E0DF912E
:10184000CF911F910F91FF90EF9008951F920F92EB
:101850000FB60F9211242F933F938F939F93AF93C3
:10186000BF938091E9029091EA02A091EB02B091BE
:10187000EC023091E80223E0230F2D3720F401968B
:10188000A11DB11D05C026E8230F0296A11DB11DA3
:101890002093E8028093E9029093EA02A093EB027E
:1018A000B093EC028091ED029091EE02A091EF02D4
:1018B000B091F0020196A11DB11D8093ED029093AD
:1018C000EE02A093EF02B093F002BF91AF919F910F
:1018D0008F913F912F910F900FBE0F901F901895F1
:1018E000EF92FF920F931F93CF93DF93EC01198236
:1018F00018821B821A821D821C8261157105B9F142
:101900007B01FB0101900020E9F731978F01061B55
:10191000170BB8016F5F7F4F80E090E00E941218B4
:10192000009759F0998388831B830A832C813D811A
:10193000232B81F4FC0110820DC0888199810097CE
:1019400011F00E948917198218821D821C821B8245
:101950001A820DC01D830C83B70188819981DF91A4
:10196000CF911F910F91FF90EF900C94E618DF91AB
:10197000CF911F910F91FF90EF9008951F920F92BA
:101980000FB60F9211242F933F934F935F936F9352
:101990007F938F939F93AF93BF93EF93FF9381EFC9
:1019A00092E00E94D407FF91EF91BF91AF919F9178
:1019B0008F917F916F915F914F913F912F910F90F8
:1019C0000FBE0F901F9018951F920F920FB60F9297
:1019D00011242F938F939F93EF93FF93E091010333
:1019E000F09102038081E0910703F091080382FDEA
:1019F00012C0908180910A038F5F8F7320910B0337
:101A0000821751F0E0910A03F0E0EF50FD4F958FFF
:101A100080930A0301C08081FF91EF919F918F9184
:101A20002F910F900FBE0F901F901895833081F06B
:101A300028F4813099F08230A1F008958730A9F020
:101A40008830B9F08430D1F4809180008F7D03C05C
:101A5000809180008F7780938000089584B58F7780
:101A600002C084B58F7D84BD08958091B0008F77CA
:101A700003C08091B0008F7D8093B000089542E054
:101A800050E063EA71E081EF92E00C94A30BCF93F6
:101A9000DF93FC01448155816081718181EF92E087
:101AA0000E94A30BEC010E943F0D8C0F9D1FDF9144
:101AB000CF910895CF92DF92EF92FF920F931F93F1
:101AC000CF93DF932091D4033091D5034091D2037B
:101AD0005091D3032417350709F45CC0DC01C90118
:101AE00001969093D5038093D403E091D003F091B5
:101AF000D103A901C3E0440F551FCA95E1F7E40FD4
:101B0000F51F4D915D916D917C91139740835183A9
:101B10006283738314968C911497848315968C91A9
:101B20001597858316968C911697868317968C91B8
:101B300087832115310571F18091D0039091D103F4
:101B4000A9014150510957FDA901EA01D595C79551
:101B5000BE0153E0660F771F5A95E1F7680F791FB2
:101B6000E3E0220F331FEA95E1F7820F931FFB0199
:101B7000C080D180E280F380FC010081118122814C
:101B800033810C151D052E053F0524F40E94920893
:101B90009E01CFCFDF91CF911F910F91FF90EF90DA
:101BA000DF90CF900895CF93DF93009779F0FC01F9
:101BB00001900020E9F73197AF01481B590BBC0198
:101BC00081EF92E00E94A30BEC0102C0C0E0D0E0E4
:101BD0000E943F0D8C0F9D1FDF91CF910895299A90
:101BE0002A988EBD0DB407FEFDCF6EBD0DB407FE65
:101BF000FDCF2A9A089529982A988EBD0DB407FE24
:101C0000FDCF2A9A0895299A2A988EBD0DB407FE11
:101C1000FDCF2A9A0895CF92DF92EF92FF920F9311
:101C20001F93CF93DF93D82EC92EF62EE72E142FB5
:101C3000052FE9018AE20E94FB0D8C2D0E94030E04
:101C40008D2D0E94030E8E2D0E94030E8F2D0E945B
:101C5000030E8BE20E94FB0D802F0E94030E812F4A
:101C60000E94030E8D2F0E94030E8C2F0E94030EE4
:101C70008CE2DF91CF911F910F91FF90EF90DF9059
:101C8000CF900C94FB0DAB019B01BC010E940B0E8D
:101C9000EEE8F3E0608181810C94EF0DEF92FF920A
:101CA0000F931F93CF93DF93FB017A01E9019B010F
:101CB0002C0F3D1F21503109AC014E0D5F1DBA01A3
:101CC00061507109AF010E940B0E1C161D067CF4B9
:101CD0008701101611064CF460918E0380918F03DA
:101CE0000E94EF0D01501109F4CF2197EECFDF9143
:101CF000CF911F910F91FF90EF900895AF92BF92F7
:101D0000CF92DF92EF92FF920F931F93CF93DF93C7
:101D1000CDB7DEB761970FB6F894DEBF0FBECDBF6B
:101D20004AE0BE016F5F7F4F0E940416E12CE1E0A4
:101D3000F0E0EC0FFD1FEE0DF11D4081442309F48E
:101D4000D7C0209192033091930380919603909194
:101D50009703281739070CF0C9C08091940390911C
:101D600095036091980370919903861797070CF07B
:101D7000BDC050919B0366E0569F200D311D11247C
:101D8000121613060CF0B2C028E0529F800D911D70
:101D90001124181619060CF0A9C035E043025001B1
:101DA000112400E010E0053039F0F801EA0DFB1DC8
:101DB000EA57FF4FF49001C0F12CC12CD12CF0FE5A
:101DC0002AC040919B03809192039091930360916C
:101DD000940370919503413039F46C0D7D1D800F93
:101DE000911F0E94430E64C050E0C49E9001C59EA6
:101DF000300DD49E300D1124620F731F049FF0012B
:101E0000059FF00D149FF00D11249A018E0F9F1F56
:101E10000E944E0E4DC0209190033091910380910D
:101E20008E0390918F032817390709F441C030932E
:101E30008F0320938E03909391038093900340919E
:101E40009B0380919203909193036091940370910E
:101E50009503413039F46C0D7D1D800F911F0E9458
:101E6000430E16C050E0C49E9001C59E300DD49E16
:101E7000300D1124620F731F049FF001059FF00DB8
:101E8000149FF00D11249A018E0F9F1F0E944E0E79
:101E900080918E0390918F03209190033091910354
:101EA00030938F0320938E0390939103809390033C
:101EB000F6946FEFC61AD60A88E0C816D10409F066
:101EC0007ECF0F5F1F4F0630110509F06CCF2091B8
:101ED0009B03809192039091930336E0239F800DA2
:101EE000911D11249093930380939203E3941FCF49
:101EF00061960FB6F894DEBF0FBECDBFDF91CF91D4
:101F00001F910F91FF90EF90DF90CF90BF90AF9017
:101F10000895CF93DF93282F30E0F901EE58FF4F5B
:101F20008491F901E755FA4FD491F901EB56FA4F34
:101F3000C491CC2391F081110E94160DEC2FF0E09A
:101F4000EE0FFF1FEF57FA4FA591B491EC91ED23DF
:101F500081E090E021F480E002C080E090E0DF9139
:101F6000CF910895CF93DF9390E0FC01E755FA4FAE
:101F70002491FC01EB56FA4F8491882361F190E0A3
:101F8000880F991FFC01E859FF4FC591D491FC01BE
:101F9000E557FA4FA591B491611109C09FB7F89424
:101FA0008881209582238883EC912E230BC0623098
:101FB00061F49FB7F8948881322F3095832388830A
:101FC000EC912E2B2C939FBF06C08FB7F894E8811D
:101FD0002E2B28838FBFDF91CF9108953FB7F894C0
:101FE0008091ED029091EE02A091EF02B091F0028B
:101FF00026B5A89B05C02F3F19F00196A11DB11D64
:102000003FBFBA2FA92F982F8827820F911DA11D9E
:10201000B11DBC01CD0142E0660F771F881F991FDB
:102020004A95D1F708952FB7F8946091E90270911D
:10203000EA028091EB029091EC022FBF08958EE3AB
:1020400091E09093B2038093B1038091AA029091A2
:10205000AB02815B934071F4E091C403F091C5033E
:1020600090818091C6038095892380831092AB0272
:102070001092AA020895CF93DF9300D000D000D031
:10208000CDB7DEB7789484B5826084BD84B58160B5
:1020900084BD85B5826085BD85B5816085BD809133
:1020A0006E00816080936E001092810080918100AB
:1020B00082608093810080918100816080938100A3
:1020C000809180008160809380008091B100846065
:1020D0008093B1008091B00081608093B0008091C6
:1020E0007A00846080937A0080917A008260809385
:1020F0007A0080917A00816080937A0080917A00E2
:10210000806880937A001092C100E0910103F09101
:10211000020382E08083E091FD02F091FE021082D2
:10212000E091FF02F09100038FEC8083109209038D
:10213000E0910503F091060386E08083E0910303BC
:10214000F0910403808180618083E0910303F0912A
:102150000403808188608083E0910303F09104038D
:10216000808180688083E0910303F0910403808183
:102170008F7D80838091BF02811145C01092B10292
:102180001092B0028FEF8093B4028093B5028093D7
:10219000B6028093B7028093B8028093B90281E0BF
:1021A0008093BA021092BC021092BB021092B3024A
:1021B0001092B2028091F2019091F301892B31F4D7
:1021C0008EEA92E09093F3018093F201E091AC02E9
:1021D000F091AD02309721F08EEA92E095838483EE
:1021E0008EEA92E09093AD028093AC021092BE0210
:1021F0001092BD028AE191E09093AF028093AE020B
:1022000081E08093BF02569A84EF91E09093B102EF
:102210008093B0028CE390E09093BC028093BB0269
:102220008091A7039091A803A091A903B091AA035C
:10223000843C29E09207A105B10520F484EC99E0E3
:10224000A0E0B0E08093A7039093A803A093A90314
:10225000B093AA0362E082E00E94B20F62E083E0E2
:102260000E94B20F62E084E00E94B20F62E085E05B
:102270000E94B20F259A239A2498229A209A219A92
:102280002A9A8CB580648CBD8CB580618CBD8DB56F
:1022900081608DBD28988FE39CE90197F1F700C01C
:1022A0000000289A8FE39CE90197F1F700C0000035
:1022B00081E10E94FB0D8FE39CE90197F1F700C0DB
:1022C00000008FEC0E94FB0D80E00E94030E83EC67
:1022D0000E94030E80E30E94030E8DEE0E94FB0D10
:1022E00084E60E94030E83E00E94030E82E10E94B6
:1022F000030E81E80E94030E88EE0E94FB0D85E824
:102300000E94030E80E10E94030E89E70E94030EE3
:102310008BEC0E94FB0D89E30E94030E8CE20E946D
:10232000030E80E00E94030E84E30E94030E82E00D
:102330000E94030E87EF0E94FB0D80E20E94030EB5
:102340008AEE0E94FB0D80E00E94030E80E00E9456
:10235000030E80EC0E94FB0D82E20E94030E81ECD2
:102360000E94FB0D81E10E94030E85EC0E94FB0D93
:102370008DE30E94030E80E20E94030E87EC0E9410
:10238000FB0D8AEA0E94030E86E30E94FB0D88E69D
:102390000E94030E8AE30E94FB0D85E50E94030E56
:1023A00081EB0E94FB0D80E00E94030E83E10E94FE
:1023B000030E86EB0E94FB0D8AE00E94030E82EA68
:1023C0000E94030E86EF0E94FB0D81E00E94030E27
:1023D00080E30E94030E82EF0E94FB0D80E00E94CA
:1023E000030E86E20E94FB0D81E00E94030E80EE48
:1023F0000E94FB0D8FE00E94030E8FE30E94030EEC
:102400008FE20E94030E8CE00E94030E80E10E9486
:10241000030E8AE00E94030E83E50E94030E85ED01
:102420000E94030E80E40E94030E8AE00E94030EC5
:1024300083E10E94030E83E00E94030E88E00E9465
:10244000030E83E00E94030E80E00E94030E81EEE3
:102450000E94FB0D80E00E94030E80E00E94030EAC
:1024600080E10E94030E83E00E94030E8FE00E9431
:10247000030E85E00E94030E8CE20E94030E82EAA6
:102480000E94030E8FE30E94030E85E00E94030E5C
:102490008EE00E94030E8CE00E94030E87E30E94F0
:1024A000030E8CE30E94030E8FE00E94030E81E175
:1024B0000E94FB0D9FEF29EF80E09150204080406B
:1024C000E1F700C0000089E20E94FB0D9FEF21EEC2
:1024D00084E0915020408040E1F700C0000010925D
:1024E00093031092920310929503109294032091FB
:1024F00098033091990321503109609196037091AE
:1025000097036150710940E050E080E090E00E9444
:102510000B0E00E010E0809198039091990308174A
:102520001907B4F4C12CD12C809196039091970394
:10253000C816D90654F460919003809191030E94CB
:10254000EF0D9FEFC91AD90AEFCF0F5F1F4FE3CFEF
:102550005298579A5F9A5A9A1092CC031092CB03D2
:102560001092CA031092C9031092C8031092C703B5
:102570008DE991E09093CE038093CD039091BD03BC
:10258000963108F058C02DEB30E03093C80320930B
:10259000C7032BE931E03093CA032093C9032CE22F
:1025A00031E03093CC032093CB0340916800983006
:1025B00058F031E09E3008F430E021E0822F01C075
:1025C000880F3A95EAF701C084E0842B8093680075
:1025D000983038F09E3040F0963148F020E030E0FE
:1025E00008C02DE630E005C02BE630E002C02CE646
:1025F00030E03093C5032093C403983030F481E079
:1026000001C0880F9A95EAF70EC0292F30E09E305E
:1026100018F42850310902C02E50310981E001C060
:10262000880F2A95EAF78093C6038091CD03909195
:10263000CE030197F1F78091CB039091CC03892BC6
:1026400049F1E091AA02F091AB0223E0E13BF207ED
:1026500009F1309739F0A389B4899C9185898095D7
:1026600089238C938091CF038E7F8093CF03109228
:10267000A9021092A80281EB93E09093AB028093A1
:10268000AA02E091C403F091C50390818091C60332
:10269000892B808361E08DE00E94B20F1092E702E7
:1026A0001092E6021092E5021092E40288EA282EC7
:1026B000312C94E6492E512C82E00E94890F3C0176
:1026C00083E00E94890F4C0184E00E94890F5C0125
:1026D00085E00E94890F6C0181E0672809F080E0A5
:1026E00026EB37E046ED52E06AED72E00E946F0B98
:1026F00081E0892809F080E028E937E041ED52E0E7
:1027000065ED72E00E946F0B81E0AB2809F080E07C
:102710002AE737E04CEC52E060ED72E00E946F0B6C
:1027200081E0CD2809F080E02CE537E047EC52E06D
:102730006BEC72E00E946F0B8091D4039091D503F3
:10274000892B11F00E94DF088091DB02882309F4B5
:1027500078C0E0910000F09101000280F381E02D4B
:1027600080E090E00995811107C084E791E00E9424
:10277000D30D1092DB0265C00E941310209100015E
:102780003091010145E0429FF001439FF00D11247B
:102790003296DE01119601900D924A95E1F709817A
:1027A0001A812B813C8160177107820793070CF413
:1027B00048C08D8183708E83682E712CA12CB12C22
:1027C000C12CD12C8E81823079F038F4813041F0E7
:1027D0008FE791E00E94D30D2AC000E02FEF02C0E6
:1027E0000FEF20E040E003C000E020E04FEF10E0FA
:1027F00030E050E07501B601C3010E94FC0A4601B9
:102800009FEF891A990A28ECA20EB11C750100E00D
:1028100010E020E030E040E050E0B601C3010E944B
:10282000FC0A8FE08816910411F06401CBCFE0918F
:102830000000F09101000190F081E02D80E090E037
:1028400009953092930320929203509295034092FF
:10285000940313E010939B0310928F0310928E0346
:102860008FED95E10E947E0E84E590E090939303B6
:1028700080939203509295034092940310939B038C
:1028800010928F0310928E0382E491E00E947E0EDC
:1028900067E081EB93E00E946B038091E6029091E8
:1028A000E702009729F18F9751F50E9413100091CC
:1028B000DC021091DD022091DE023091DF02DC01AA
:1028C000CB01801B910BA20BB30B813D9740A1055F
:1028D000B105C8F00E9413106093DC027093DD0212
:1028E0008093DE029093DF028EE891E00E94D30D88
:1028F0008FE290E09093E7028093E602D6CF1092A9
:10290000E7021092E6028091E4029091E5020097BE
:1029100029F1C79751F50E9413100091E002109120
:10292000E1022091E2023091E302DC01CB01801B45
:10293000910BA20BB30B893E9340A105B105C8F0E2
:102940000E9413106093E0027093E1028093E20210
:102950009093E30284E991E00E94D30D87E390E035
:102960009093E5028093E402D6CF1092E502109294
:10297000E4028AE991E00E94D30D0E9448039CCEB4
:102980001F93CF93DF93282F30E0F901EE58FF4FCC
:102990008491F901E755FA4FD491F901EB56FA4FBA
:1029A000C491CC23C1F0162F81110E94160DEC2F7B
:1029B000F0E0EE0FFF1FE557FA4FA591B4919FB7D6
:1029C000F894111104C08C91D095D82302C0EC91D9
:1029D000DE2BDC939FBFDF91CF911F910895109262
:1029E000F4021092F30288EE93E0A0E0B0E080934E
:1029F000F5029093F602A093F702B093F8028CE2EE
:102A000091E09093F2028093F10285EC90E0909334
:102A1000FE028093FD0284EC90E09093000380938B
:102A2000FF0280EC90E0909302038093010381EC1D
:102A300090E0909304038093030382EC90E09093E2
:102A400006038093050386EC90E09093080380933F
:102A5000070310920A0310920B0310920C031092BA
:102A60000D0310929303109292031092950310920B
:102A7000940380E491E0909397038093960380EF12
:102A800090E0909399038093980381E080939B0357
:102A900010929A0310928F0310928E038FEF9FEF84
:102AA000909391038093900310929D0310929C0346
:102AB00010929F0310929E0381E090E09093A103F7
:102AC0008093A00380E490E09093A3038093A203FB
:102AD0008FEF8093A4031092A6031092A503109287
:102AE000B0031092AF038FEF9FEFDC018093AB0335
:102AF0009093AC03A093AD03B093AE031092D503B3
:102B00001092D40382E390E09093D3038093D20396
:102B100080E991E00E94F1169093D1038093D00355
:102B2000E6EDF3E084E994E0108273968E179F0738
:102B3000D9F71092B4031092B30388EE93E0A0E0AB
:102B4000B0E08093B5039093B603A093B703B0931E
:102B5000B8038EE391E09093B2038093B103109297
:102B6000C8031092C7031092CA031092C9031092AF
:102B7000CC031092CB031092CE031092CD03609140
:102B8000CF036E7F6D7F6093CF036695617081E0A8
:102B900068270E94C01461E081E00E94B20FEAEA57
:102BA000F5E0E491E093C103E6E9F5E0E491F0E0BB
:102BB000EE0FFF1FE557FA4F859194919093C30351
:102BC0008093C20360E080E00E94B20F8091CF0347
:102BD00081FD04C061E080E00E94C0141092BD033A
:102BE000E9EAF5E0E491E093BE03E5E9F5E0E4917C
:102BF000F0E0EE0FFF1FEF57FA4F859194919093FD
:102C0000C0038093BF030895BB274A3031F4992352
:102C100022F4BDE2909581959F4F0C941016BB272E
:102C2000FB015527AA27880F991FAA1FA41710F088
:102C3000A41B83955051B9F7A05DAA3308F0A95D94
:102C4000A193009779F7B111B1931192CB010C9434
:102C50002916DC01FC01672F71917723E1F7329788
:102C600004C07C916D9370836291AE17BF07C8F367
:102C700008950E947B16A59F900DB49F900DA49F70
:102C8000800D911D112408952F923F924F925F92D3
:102C90006F927F928F929F92AF92BF92CF92DF926C
:102CA000EF92FF920F931F93CF93DF93CDB7DEB7D1
:102CB000CA1BDB0B0FB6F894DEBF0FBECDBF099465
:102CC0002A88398848885F846E847D848C849B84BC
:102CD000AA84B984C884DF80EE80FD800C811B81CA
:102CE000AA81B981CE0FD11D0FB6F894DEBF0FBEF9
:102CF000CDBFED010895A29FB001B39FC001A39F76
:102D0000700D811D1124911DB29F700D811D112424
:102D1000911D0895DB018F939F930E943916BF91F7
:102D2000AF91A29F800D911DA39F900DB29F900D1A
:102D30001124089597FB072E16F4009407D077FD11
:102D400009D00E94D71607FC05D03EF490958195D6
:102D50009F4F0895709561957F4F0895A1E21A2EB7
:102D6000AA1BBB1BFD010DC0AA1FBB1FEE1FFF1F2F
:102D7000A217B307E407F50720F0A21BB30BE40B7F
:102D8000F50B661F771F881F991F1A9469F76095C6
:102D90007095809590959B01AC01BD01CF01089580
:102DA0000E947B16B7FF0895821B930B0895AA1B00
:102DB000BB1B51E107C0AA1FBB1FA617B70710F026
:102DC000A61BB70B881F991F5A95A9F78095909558
:102DD000BC01CD010895EE0FFF1F0590F491E02D89
:102DE00009940F931F93CF93DF938230910510F4D2
:102DF00082E090E0E0919604F091970420E030E0CA
:102E0000A0E0B0E0309719F1408151810281138137
:102E100048175907C8F08417950769F4109731F0DF
:102E200012960C93129713961C9327C00093960446
:102E30001093970422C02115310519F0421753074A
:102E400018F49A01BD01EF01DF01F801DBCF211574
:102E50003105F9F0281B390B2430310580F48A81C3
:102E60009B816115710521F0FB019383828304C06E
:102E70009093970480939604FE01329644C0FE011D
:102E8000E20FF31F819391932250310939832883F4
:102E90003AC02091940430919504232B41F4209161
:102EA0000201309103013093950420939404209102
:102EB0000001309101012115310541F42DB73EB7D4
:102EC0004091040150910501241B350BE0919404BD
:102ED000F0919504E217F307A0F42E1B3F0B28177F
:102EE000390778F0AC014E5F5F4F2417350748F083
:102EF0004E0F5F1F509395044093940481939193D8
:102F000002C0E0E0F0E0CF01DF91CF911F910F917F
:102F10000895CF93DF93009709F481C0FC013297A5
:102F200013821282A0919604B0919704109781F4B5
:102F300020813181820F931F209194043091950458
:102F40002817390751F5F0939504E093940467C06E
:102F5000ED0120E030E0CE17DF0740F44A815B81CD
:102F60009E0141155105F1F0EA01F5CFD383C283EB
:102F700040815181840F951FC817D90759F4888162
:102F80009981840F951F0296918380838A819B810A
:102F9000938382832115310529F4F0939704E093FC
:102FA00096043DC0E901FB83EA8349915991C40F1E
:102FB000D51FEC17FD0761F480819181840F951F67
:102FC0000296E90199838883828193819B838A8316
:102FD000E0E0F0E012968D919C911397009719F024
:102FE000FD01DC01F7CF8D919C9111979D012E5F22
:102FF0003F4F820F931F209194043091950428171E
:10300000390769F4309729F41092970410929604C6
:1030100002C013821282B0939504A0939404DF91AE
:10302000CF910895A0E0B0E0E8E1F8E10C944816F3
:10303000EC01009721F4CB010E94F116B4C0FC0111
:10304000E60FF71F9C0122503109E217F30708F43D
:10305000A8C0D9010D911C91119706171707B0F060
:103060000530110508F49BC0C8010497861797071F
:1030700008F495C002501109061B170B0193119318
:103080006D937C93CF010E94891789C05B01A01AC0
:10309000B10A4C01800E911EA0919604B091970444
:1030A000612C712CE12CF12C109709F446C08D9104
:1030B0009C911197A815B905B1F56C0142E0C40EB9
:1030C000D11CCA14DB0478F14C018A189B086401F6
:1030D00042E0C40ED11C1296BC9012971396AC918C
:1030E000B5E0CB16D10440F0B282A38391828082F6
:1030F000D9016D937C9309C00E5F1F4F800F911F04
:10310000F90191838083EB2DFA2FE114F10431F062
:10311000D7011396FC93EE93129741C0F093970456
:10312000E09396043CC06816790608F43C017D01E2
:1031300012960D90BC91A02DB7CF809194049091E0
:10314000950488169906E1F466167706C8F480910E
:10315000000190910101009741F48DB79EB7409115
:10316000040150910501841B950BE817F907C8F479
:10317000F0939504E0939404F901718360830FC088
:10318000CB010E94F1167C01009759F0A801BE0105
:103190000E94DD18CE010E948917C70104C0CE012C
:1031A00002C080E090E0CDB7DEB7EEE00C9464168C
:1031B00081E090E0F8940C94ED18FB01DC0102C072
:1031C00001900D9241505040D8F70895FB01DC0169
:1031D00001900D920020E1F7089512E0C0EED2E0D8
:1031E00004C0FE010E94EB162196C13ED107C9F72B
:0431F000F894FFCF81
:1031F40000009804800000000000CD0BCD0BCD0B27
:10320400E504E104DE04000000009B0457045504B7
:10321400E504E1045204090500000000D90BA30BE6
:103224000B03F6073C031A032E03000000006B0394
:10323400A30BF5036A03BB03D30352035052455354
:1032440053454420340050524553534544203300E1
:103254005052455353454420320050524553534530
:1032640044203100536F6E6720646F6E65210049FE
:103274006E76616C696420636F6C756D6E00544585
:10328400535431005445535432006D65616E746972
:063294006D65000D0A004B
:107E0000112484B714BE81FFF0D085E080938100F7
:107E100082E08093C00088E18093C10086E0809377
:107E2000C20080E18093C4008EE0C9D0259A86E02C
:107E300020E33CEF91E0309385002093840096BBD3
:107E4000B09BFECF1D9AA8958150A9F7CC24DD24C4
:107E500088248394B5E0AB2EA1E19A2EF3E0BF2EE7
:107E6000A2D0813461F49FD0082FAFD0023811F036
:107E7000013811F484E001C083E08DD089C08234E0
:107E800011F484E103C0853419F485E0A6D080C0E4
:107E9000853579F488D0E82EFF2485D0082F10E0AE
:107EA000102F00270E291F29000F111F8ED06801E7
:107EB0006FC0863521F484E090D080E0DECF843638
:107EC00009F040C070D06FD0082F6DD080E0C81688
:107ED00080E7D80618F4F601B7BEE895C0E0D1E017
:107EE00062D089930C17E1F7F0E0CF16F0E7DF06D8
:107EF00018F0F601B7BEE89568D007B600FCFDCFD4
:107F0000A601A0E0B1E02C9130E011968C91119780
:107F100090E0982F8827822B932B1296FA010C0160
:107F200087BEE89511244E5F5F4FF1E0A038BF0790
:107F300051F7F601A7BEE89507B600FCFDCF97BE46
:107F4000E89526C08437B1F42ED02DD0F82E2BD052
:107F50003CD0F601EF2C8F010F5F1F4F84911BD097
:107F6000EA94F801C1F70894C11CD11CFA94CF0C13
:107F7000D11C0EC0853739F428D08EE10CD085E9AC
:107F80000AD08FE07ACF813511F488E018D01DD067
:107F900080E101D065CF982F8091C00085FFFCCF94
:107FA0009093C60008958091C00087FFFCCF809118
:107FB000C00084FD01C0A8958091C6000895E0E648
:107FC000F0E098E1908380830895EDDF803219F02E
:107FD00088E0F5DFFFCF84E1DECF1F93182FE3DFCA
:107FE0001150E9F7F2DF1F91089580E0E8DFEE27F6
:047FF000FF270994CA
:027FFE00040479
:0400000300007E007B
:00000001FF
